{
  "contractName": "AllInOneSolution",
  "abi": [
    {
      "inputs": [
        {
          "internalType": "address payable",
          "name": "evaluatoraddress",
          "type": "address"
        },
        {
          "internalType": "address",
          "name": "tdtoken",
          "type": "address"
        }
      ],
      "stateMutability": "nonpayable",
      "type": "constructor"
    },
    {
      "inputs": [],
      "name": "_tdtoken",
      "outputs": [
        {
          "internalType": "address",
          "name": "",
          "type": "address"
        }
      ],
      "stateMutability": "view",
      "type": "function",
      "constant": true
    },
    {
      "inputs": [],
      "name": "evaluator",
      "outputs": [
        {
          "internalType": "contract Evaluator",
          "name": "",
          "type": "address"
        }
      ],
      "stateMutability": "view",
      "type": "function",
      "constant": true
    },
    {
      "inputs": [],
      "name": "execute",
      "outputs": [],
      "stateMutability": "nonpayable",
      "type": "function"
    },
    {
      "inputs": [],
      "name": "completeWorkshop",
      "outputs": [],
      "stateMutability": "nonpayable",
      "type": "function"
    }
  ],
  "bytecode": "0x608060405234801561001057600080fd5b506040516134593803806134598339818101604052604081101561003357600080fd5b810190808051906020019092919080519060200190929190505050816000806101000a81548173ffffffffffffffffffffffffffffffffffffffff021916908373ffffffffffffffffffffffffffffffffffffffff16021790555080600160006101000a81548173ffffffffffffffffffffffffffffffffffffffff021916908373ffffffffffffffffffffffffffffffffffffffff1602179055505050613379806100e06000396000f3fe60806040523480156200001157600080fd5b5060043610620000525760003560e01c8063408c4012146200005757806359b4726c14620000a35780636146195414620000af5780639cb93dd114620000bb575b600080fd5b6200006162000107565b604051808273ffffffffffffffffffffffffffffffffffffffff1673ffffffffffffffffffffffffffffffffffffffff16815260200191505060405180910390f35b620000ad6200012d565b005b620000b9620012a3565b005b620000c562001328565b604051808273ffffffffffffffffffffffffffffffffffffffff1673ffffffffffffffffffffffffffffffffffffffff16815260200191505060405180910390f35b600160009054906101000a900473ffffffffffffffffffffffffffffffffffffffff1681565b6000809054906101000a900473ffffffffffffffffffffffffffffffffffffffff1673ffffffffffffffffffffffffffffffffffffffff166398f020976040518163ffffffff1660e01b8152600401600060405180830381600087803b1580156200019757600080fd5b505af1158015620001ac573d6000803e3d6000fd5b5050505060606000809054906101000a900473ffffffffffffffffffffffffffffffffffffffff1673ffffffffffffffffffffffffffffffffffffffff1663e22b5dcf306040518263ffffffff1660e01b8152600401808273ffffffffffffffffffffffffffffffffffffffff1673ffffffffffffffffffffffffffffffffffffffff16815260200191505060006040518083038186803b1580156200025157600080fd5b505afa15801562000266573d6000803e3d6000fd5b505050506040513d6000823e3d601f19601f8201168201806040525060208110156200029157600080fd5b8101908080516040519392919084640100000000821115620002b257600080fd5b83820191506020820185811115620002c957600080fd5b8251866001820283011164010000000082111715620002e757600080fd5b8083526020830192505050908051906020019080838360005b838110156200031d57808201518184015260208101905062000300565b50505050905090810190601f1680156200034b5780820380516001836020036101000a031916815260200191505b50604052505050905060008060009054906101000a900473ffffffffffffffffffffffffffffffffffffffff1673ffffffffffffffffffffffffffffffffffffffff16639f91f516306040518263ffffffff1660e01b8152600401808273ffffffffffffffffffffffffffffffffffffffff1673ffffffffffffffffffffffffffffffffffffffff16815260200191505060206040518083038186803b158015620003f557600080fd5b505afa1580156200040a573d6000803e3d6000fd5b505050506040513d60208110156200042157600080fd5b81019080805190602001909291905050509050600082838360405162000447906200134d565b808060200180602001848152602001838103835286818151815260200191508051906020019080838360005b838110156200049057808201518184015260208101905062000473565b50505050905090810190601f168015620004be5780820380516001836020036101000a031916815260200191505b50838103825285818151815260200191508051906020019080838360005b83811015620004f9578082015181840152602081019050620004dc565b50505050905090810190601f168015620005275780820380516001836020036101000a031916815260200191505b5095505050505050604051809103906000f0801580156200054c573d6000803e3d6000fd5b5090506000809054906101000a900473ffffffffffffffffffffffffffffffffffffffff1673ffffffffffffffffffffffffffffffffffffffff16632236d353826040518263ffffffff1660e01b8152600401808273ffffffffffffffffffffffffffffffffffffffff1673ffffffffffffffffffffffffffffffffffffffff168152602001915050600060405180830381600087803b158015620005f057600080fd5b505af115801562000605573d6000803e3d6000fd5b505050506000809054906101000a900473ffffffffffffffffffffffffffffffffffffffff1673ffffffffffffffffffffffffffffffffffffffff1663e8b4cb566040518163ffffffff1660e01b8152600401600060405180830381600087803b1580156200067357600080fd5b505af115801562000688573d6000803e3d6000fd5b505050508073ffffffffffffffffffffffffffffffffffffffff166358addafc6000809054906101000a900473ffffffffffffffffffffffffffffffffffffffff1660016040518363ffffffff1660e01b8152600401808373ffffffffffffffffffffffffffffffffffffffff1673ffffffffffffffffffffffffffffffffffffffff1681526020018215151515815260200192505050600060405180830381600087803b1580156200073a57600080fd5b505af11580156200074f573d6000803e3d6000fd5b505050506000809054906101000a900473ffffffffffffffffffffffffffffffffffffffff1673ffffffffffffffffffffffffffffffffffffffff16633bc409566040518163ffffffff1660e01b8152600401600060405180830381600087803b158015620007bd57600080fd5b505af1158015620007d2573d6000803e3d6000fd5b505050508073ffffffffffffffffffffffffffffffffffffffff166358addafc6000809054906101000a900473ffffffffffffffffffffffffffffffffffffffff1660016040518363ffffffff1660e01b8152600401808373ffffffffffffffffffffffffffffffffffffffff1673ffffffffffffffffffffffffffffffffffffffff1681526020018215151515815260200192505050600060405180830381600087803b1580156200088457600080fd5b505af115801562000899573d6000803e3d6000fd5b505050508073ffffffffffffffffffffffffffffffffffffffff16639d7cec936000809054906101000a900473ffffffffffffffffffffffffffffffffffffffff1660016040518363ffffffff1660e01b8152600401808373ffffffffffffffffffffffffffffffffffffffff1673ffffffffffffffffffffffffffffffffffffffff16815260200182815260200192505050600060405180830381600087803b1580156200094757600080fd5b505af11580156200095c573d6000803e3d6000fd5b505050506000809054906101000a900473ffffffffffffffffffffffffffffffffffffffff1673ffffffffffffffffffffffffffffffffffffffff1663b32b559f6040518163ffffffff1660e01b8152600401600060405180830381600087803b158015620009ca57600080fd5b505af1158015620009df573d6000803e3d6000fd5b505050508073ffffffffffffffffffffffffffffffffffffffff166358addafc6000809054906101000a900473ffffffffffffffffffffffffffffffffffffffff1660006040518363ffffffff1660e01b8152600401808373ffffffffffffffffffffffffffffffffffffffff1673ffffffffffffffffffffffffffffffffffffffff1681526020018215151515815260200192505050600060405180830381600087803b15801562000a9157600080fd5b505af115801562000aa6573d6000803e3d6000fd5b505050506000809054906101000a900473ffffffffffffffffffffffffffffffffffffffff1673ffffffffffffffffffffffffffffffffffffffff1663ec65b16e6040518163ffffffff1660e01b8152600401600060405180830381600087803b15801562000b1457600080fd5b505af115801562000b29573d6000803e3d6000fd5b505050508073ffffffffffffffffffffffffffffffffffffffff166358addafc6000809054906101000a900473ffffffffffffffffffffffffffffffffffffffff1660016040518363ffffffff1660e01b8152600401808373ffffffffffffffffffffffffffffffffffffffff1673ffffffffffffffffffffffffffffffffffffffff1681526020018215151515815260200192505050600060405180830381600087803b15801562000bdb57600080fd5b505af115801562000bf0573d6000803e3d6000fd5b505050506000809054906101000a900473ffffffffffffffffffffffffffffffffffffffff1673ffffffffffffffffffffffffffffffffffffffff16630af78edc6040518163ffffffff1660e01b8152600401600060405180830381600087803b15801562000c5e57600080fd5b505af115801562000c73573d6000803e3d6000fd5b505050508073ffffffffffffffffffffffffffffffffffffffff16639d7cec936000809054906101000a900473ffffffffffffffffffffffffffffffffffffffff1660006040518363ffffffff1660e01b8152600401808373ffffffffffffffffffffffffffffffffffffffff1673ffffffffffffffffffffffffffffffffffffffff16815260200182815260200192505050600060405180830381600087803b15801562000d2157600080fd5b505af115801562000d36573d6000803e3d6000fd5b505050508073ffffffffffffffffffffffffffffffffffffffff166358addafc6000809054906101000a900473ffffffffffffffffffffffffffffffffffffffff1660006040518363ffffffff1660e01b8152600401808373ffffffffffffffffffffffffffffffffffffffff1673ffffffffffffffffffffffffffffffffffffffff1681526020018215151515815260200192505050600060405180830381600087803b15801562000de857600080fd5b505af115801562000dfd573d6000803e3d6000fd5b505050506000809054906101000a900473ffffffffffffffffffffffffffffffffffffffff1673ffffffffffffffffffffffffffffffffffffffff1663a6c611d96040518163ffffffff1660e01b8152600401600060405180830381600087803b15801562000e6b57600080fd5b505af115801562000e80573d6000803e3d6000fd5b505050508073ffffffffffffffffffffffffffffffffffffffff16639d7cec936000809054906101000a900473ffffffffffffffffffffffffffffffffffffffff1660016040518363ffffffff1660e01b8152600401808373ffffffffffffffffffffffffffffffffffffffff1673ffffffffffffffffffffffffffffffffffffffff16815260200182815260200192505050600060405180830381600087803b15801562000f2e57600080fd5b505af115801562000f43573d6000803e3d6000fd5b505050508073ffffffffffffffffffffffffffffffffffffffff166358addafc6000809054906101000a900473ffffffffffffffffffffffffffffffffffffffff1660016040518363ffffffff1660e01b8152600401808373ffffffffffffffffffffffffffffffffffffffff1673ffffffffffffffffffffffffffffffffffffffff1681526020018215151515815260200192505050600060405180830381600087803b15801562000ff557600080fd5b505af11580156200100a573d6000803e3d6000fd5b505050506000809054906101000a900473ffffffffffffffffffffffffffffffffffffffff1673ffffffffffffffffffffffffffffffffffffffff166316f4b99f6040518163ffffffff1660e01b8152600401600060405180830381600087803b1580156200107857600080fd5b505af11580156200108d573d6000803e3d6000fd5b505050508073ffffffffffffffffffffffffffffffffffffffff16639d7cec936000809054906101000a900473ffffffffffffffffffffffffffffffffffffffff1660026040518363ffffffff1660e01b8152600401808373ffffffffffffffffffffffffffffffffffffffff1673ffffffffffffffffffffffffffffffffffffffff16815260200182815260200192505050600060405180830381600087803b1580156200113b57600080fd5b505af115801562001150573d6000803e3d6000fd5b505050508073ffffffffffffffffffffffffffffffffffffffff166358addafc6000809054906101000a900473ffffffffffffffffffffffffffffffffffffffff1660016040518363ffffffff1660e01b8152600401808373ffffffffffffffffffffffffffffffffffffffff1673ffffffffffffffffffffffffffffffffffffffff1681526020018215151515815260200192505050600060405180830381600087803b1580156200120257600080fd5b505af115801562001217573d6000803e3d6000fd5b505050506000809054906101000a900473ffffffffffffffffffffffffffffffffffffffff1673ffffffffffffffffffffffffffffffffffffffff1663ccd64d7d6040518163ffffffff1660e01b8152600401600060405180830381600087803b1580156200128557600080fd5b505af11580156200129a573d6000803e3d6000fd5b50505050505050565b6000809054906101000a900473ffffffffffffffffffffffffffffffffffffffff1673ffffffffffffffffffffffffffffffffffffffff1663df70111f6040518163ffffffff1660e01b8152600401600060405180830381600087803b1580156200130d57600080fd5b505af115801562001322573d6000803e3d6000fd5b50505050565b6000809054906101000a900473ffffffffffffffffffffffffffffffffffffffff1681565b611fe8806200135c8339019056fe60806040523480156200001157600080fd5b5060405162001fe838038062001fe8833981810160405260608110156200003757600080fd5b81019080805160405193929190846401000000008211156200005857600080fd5b838201915060208201858111156200006f57600080fd5b82518660018202830111640100000000821117156200008d57600080fd5b8083526020830192505050908051906020019080838360005b83811015620000c3578082015181840152602081019050620000a6565b50505050905090810190601f168015620000f15780820380516001836020036101000a031916815260200191505b50604052602001805160405193929190846401000000008211156200011557600080fd5b838201915060208201858111156200012c57600080fd5b82518660018202830111640100000000821117156200014a57600080fd5b8083526020830192505050908051906020019080838360005b838110156200018057808201518184015260208101905062000163565b50505050905090810190601f168015620001ae5780820380516001836020036101000a031916815260200191505b506040526020018051906020019092919050505082828160039080519060200190620001dc9291906200049b565b508060049080519060200190620001f59291906200049b565b506012600560006101000a81548160ff021916908360ff16021790555050506200022633826200022f60201b60201c565b5050506200054a565b600073ffffffffffffffffffffffffffffffffffffffff168273ffffffffffffffffffffffffffffffffffffffff161415620002d3576040517f08c379a000000000000000000000000000000000000000000000000000000000815260040180806020018281038252601f8152602001807f45524332303a206d696e7420746f20746865207a65726f20616464726573730081525060200191505060405180910390fd5b620002e7600083836200040d60201b60201c565b62000303816002546200041260201b6200175d1790919060201c565b60028190555062000361816000808573ffffffffffffffffffffffffffffffffffffffff1673ffffffffffffffffffffffffffffffffffffffff168152602001908152602001600020546200041260201b6200175d1790919060201c565b6000808473ffffffffffffffffffffffffffffffffffffffff1673ffffffffffffffffffffffffffffffffffffffff168152602001908152602001600020819055508173ffffffffffffffffffffffffffffffffffffffff16600073ffffffffffffffffffffffffffffffffffffffff167fddf252ad1be2c89b69c2b068fc378daa952ba7f163c4a11628f55a4df523b3ef836040518082815260200191505060405180910390a35050565b505050565b60008082840190508381101562000491576040517f08c379a000000000000000000000000000000000000000000000000000000000815260040180806020018281038252601b8152602001807f536166654d6174683a206164646974696f6e206f766572666c6f77000000000081525060200191505060405180910390fd5b8091505092915050565b828054600181600116156101000203166002900490600052602060002090601f016020900481019282601f10620004de57805160ff19168380011785556200050f565b828001600101855582156200050f579182015b828111156200050e578251825591602001919060010190620004f1565b5b5090506200051e919062000522565b5090565b6200054791905b808211156200054357600081600090555060010162000529565b5090565b90565b611a8e806200055a6000396000f3fe6080604052600436106100fe5760003560e01c806370a0823111610095578063a457c2d711610064578063a457c2d7146105a9578063a48217191461061c578063a9059cbb1461063e578063d48a87f1146106b1578063dd62ed3e1461071a576100fe565b806370a08231146103f45780638dd3fda91461045957806395d89b41146104be5780639d7cec931461054e576100fe565b806323b872dd116100d157806323b872dd14610260578063313ce567146102f3578063395093511461032457806358addafc14610397576100fe565b806306fdde0314610103578063095ea7b31461019357806318160ddd1461020657806321df0da714610231575b600080fd5b34801561010f57600080fd5b5061011861079f565b6040518080602001828103825283818151815260200191508051906020019080838360005b8381101561015857808201518184015260208101905061013d565b50505050905090810190601f1680156101855780820380516001836020036101000a031916815260200191505b509250505060405180910390f35b34801561019f57600080fd5b506101ec600480360360408110156101b657600080fd5b81019080803573ffffffffffffffffffffffffffffffffffffffff16906020019092919080359060200190929190505050610841565b604051808215151515815260200191505060405180910390f35b34801561021257600080fd5b5061021b61085f565b6040518082815260200191505060405180910390f35b34801561023d57600080fd5b50610246610869565b604051808215151515815260200191505060405180910390f35b34801561026c57600080fd5b506102d96004803603606081101561028357600080fd5b81019080803573ffffffffffffffffffffffffffffffffffffffff169060200190929190803573ffffffffffffffffffffffffffffffffffffffff16906020019092919080359060200190929190505050610962565b604051808215151515815260200191505060405180910390f35b3480156102ff57600080fd5b50610308610a3b565b604051808260ff1660ff16815260200191505060405180910390f35b34801561033057600080fd5b5061037d6004803603604081101561034757600080fd5b81019080803573ffffffffffffffffffffffffffffffffffffffff16906020019092919080359060200190929190505050610a52565b604051808215151515815260200191505060405180910390f35b3480156103a357600080fd5b506103f2600480360360408110156103ba57600080fd5b81019080803573ffffffffffffffffffffffffffffffffffffffff169060200190929190803515159060200190929190505050610b05565b005b34801561040057600080fd5b506104436004803603602081101561041757600080fd5b81019080803573ffffffffffffffffffffffffffffffffffffffff169060200190929190505050610b60565b6040518082815260200191505060405180910390f35b34801561046557600080fd5b506104a86004803603602081101561047c57600080fd5b81019080803573ffffffffffffffffffffffffffffffffffffffff169060200190929190505050610ba8565b6040518082815260200191505060405180910390f35b3480156104ca57600080fd5b506104d3610bf1565b6040518080602001828103825283818151815260200191508051906020019080838360005b838110156105135780820151818401526020810190506104f8565b50505050905090810190601f1680156105405780820380516001836020036101000a031916815260200191505b509250505060405180910390f35b34801561055a57600080fd5b506105a76004803603604081101561057157600080fd5b81019080803573ffffffffffffffffffffffffffffffffffffffff16906020019092919080359060200190929190505050610c00565b005b3480156105b557600080fd5b50610602600480360360408110156105cc57600080fd5b81019080803573ffffffffffffffffffffffffffffffffffffffff16906020019092919080359060200190929190505050610c48565b604051808215151515815260200191505060405180910390f35b610624610d15565b604051808215151515815260200191505060405180910390f35b34801561064a57600080fd5b506106976004803603604081101561066157600080fd5b81019080803573ffffffffffffffffffffffffffffffffffffffff16906020019092919080359060200190929190505050610f21565b604051808215151515815260200191505060405180910390f35b3480156106bd57600080fd5b50610700600480360360208110156106d457600080fd5b81019080803573ffffffffffffffffffffffffffffffffffffffff169060200190929190505050610f3f565b604051808215151515815260200191505060405180910390f35b34801561072657600080fd5b506107896004803603604081101561073d57600080fd5b81019080803573ffffffffffffffffffffffffffffffffffffffff169060200190929190803573ffffffffffffffffffffffffffffffffffffffff169060200190929190505050610f95565b6040518082815260200191505060405180910390f35b606060038054600181600116156101000203166002900480601f0160208091040260200160405190810160405280929190818152602001828054600181600116156101000203166002900480156108375780601f1061080c57610100808354040283529160200191610837565b820191906000526020600020905b81548152906001019060200180831161081a57829003601f168201915b5050505050905090565b600061085561084e61101c565b8484611024565b6001905092915050565b6000600254905090565b600060011515600660003373ffffffffffffffffffffffffffffffffffffffff1673ffffffffffffffffffffffffffffffffffffffff16815260200190815260200160002060009054906101000a900460ff16151514610931576040517f08c379a00000000000000000000000000000000000000000000000000000000081526004018080602001828103825260208152602001807f746869732061646472657373206973206e6f74205768697465206c697374656481525060200191505060405180910390fd5b600061093c33610b60565b905061094b33620186a061121b565b600061095633610b60565b90508082109250505090565b600061096f8484846113e2565b610a308461097b61101c565b610a2b856040518060600160405280602881526020016119c360289139600160008b73ffffffffffffffffffffffffffffffffffffffff1673ffffffffffffffffffffffffffffffffffffffff16815260200190815260200160002060006109e161101c565b73ffffffffffffffffffffffffffffffffffffffff1673ffffffffffffffffffffffffffffffffffffffff168152602001908152602001600020546116a39092919063ffffffff16565b611024565b600190509392505050565b6000600560009054906101000a900460ff16905090565b6000610afb610a5f61101c565b84610af68560016000610a7061101c565b73ffffffffffffffffffffffffffffffffffffffff1673ffffffffffffffffffffffffffffffffffffffff16815260200190815260200160002060008973ffffffffffffffffffffffffffffffffffffffff1673ffffffffffffffffffffffffffffffffffffffff1681526020019081526020016000205461175d90919063ffffffff16565b611024565b6001905092915050565b80600660008473ffffffffffffffffffffffffffffffffffffffff1673ffffffffffffffffffffffffffffffffffffffff16815260200190815260200160002060006101000a81548160ff0219169083151502179055505050565b60008060008373ffffffffffffffffffffffffffffffffffffffff1673ffffffffffffffffffffffffffffffffffffffff168152602001908152602001600020549050919050565b6000600760008373ffffffffffffffffffffffffffffffffffffffff1673ffffffffffffffffffffffffffffffffffffffff168152602001908152602001600020549050919050565b6060610bfb6117e5565b905090565b80600760008473ffffffffffffffffffffffffffffffffffffffff1673ffffffffffffffffffffffffffffffffffffffff168152602001908152602001600020819055505050565b6000610d0b610c5561101c565b84610d0685604051806060016040528060258152602001611a346025913960016000610c7f61101c565b73ffffffffffffffffffffffffffffffffffffffff1673ffffffffffffffffffffffffffffffffffffffff16815260200190815260200160002060008a73ffffffffffffffffffffffffffffffffffffffff1673ffffffffffffffffffffffffffffffffffffffff168152602001908152602001600020546116a39092919063ffffffff16565b611024565b6001905092915050565b6000806509184e72a000905060011515600660003373ffffffffffffffffffffffffffffffffffffffff1673ffffffffffffffffffffffffffffffffffffffff16815260200190815260200160002060009054906101000a900460ff16151514610d7e57600080fd5b6000600760003373ffffffffffffffffffffffffffffffffffffffff1673ffffffffffffffffffffffffffffffffffffffff168152602001908152602001600020541415610dcb57600080fd5b803411610e23576040517f08c379a00000000000000000000000000000000000000000000000000000000081526004018080602001828103825260248152602001806119586024913960400191505060405180910390fd5b6000610e2e33610b60565b905060003490506001600760003373ffffffffffffffffffffffffffffffffffffffff1673ffffffffffffffffffffffffffffffffffffffff168152602001908152602001600020541415610e9d57610e9c33610e97620186a08461188790919063ffffffff16565b61121b565b5b6002600760003373ffffffffffffffffffffffffffffffffffffffff1673ffffffffffffffffffffffffffffffffffffffff168152602001908152602001600020541415610f0857610f0733610eff620186a08461188790919063ffffffff16565b60020261121b565b5b6000610f1333610b60565b905082811194505050505090565b6000610f35610f2e61101c565b84846113e2565b6001905092915050565b6000600660008373ffffffffffffffffffffffffffffffffffffffff1673ffffffffffffffffffffffffffffffffffffffff16815260200190815260200160002060009054906101000a900460ff169050919050565b6000600160008473ffffffffffffffffffffffffffffffffffffffff1673ffffffffffffffffffffffffffffffffffffffff16815260200190815260200160002060008373ffffffffffffffffffffffffffffffffffffffff1673ffffffffffffffffffffffffffffffffffffffff16815260200190815260200160002054905092915050565b600033905090565b600073ffffffffffffffffffffffffffffffffffffffff168373ffffffffffffffffffffffffffffffffffffffff1614156110aa576040517f08c379a0000000000000000000000000000000000000000000000000000000008152600401808060200182810382526024815260200180611a106024913960400191505060405180910390fd5b600073ffffffffffffffffffffffffffffffffffffffff168273ffffffffffffffffffffffffffffffffffffffff161415611130576040517f08c379a00000000000000000000000000000000000000000000000000000000081526004018080602001828103825260228152602001806119366022913960400191505060405180910390fd5b80600160008573ffffffffffffffffffffffffffffffffffffffff1673ffffffffffffffffffffffffffffffffffffffff16815260200190815260200160002060008473ffffffffffffffffffffffffffffffffffffffff1673ffffffffffffffffffffffffffffffffffffffff168152602001908152602001600020819055508173ffffffffffffffffffffffffffffffffffffffff168373ffffffffffffffffffffffffffffffffffffffff167f8c5be1e5ebec7d5bd14f71427d1e84f3dd0314c0f7b2291e5b200ac8c7c3b925836040518082815260200191505060405180910390a3505050565b600073ffffffffffffffffffffffffffffffffffffffff168273ffffffffffffffffffffffffffffffffffffffff1614156112be576040517f08c379a000000000000000000000000000000000000000000000000000000000815260040180806020018281038252601f8152602001807f45524332303a206d696e7420746f20746865207a65726f20616464726573730081525060200191505060405180910390fd5b6112ca6000838361190d565b6112df8160025461175d90919063ffffffff16565b600281905550611336816000808573ffffffffffffffffffffffffffffffffffffffff1673ffffffffffffffffffffffffffffffffffffffff1681526020019081526020016000205461175d90919063ffffffff16565b6000808473ffffffffffffffffffffffffffffffffffffffff1673ffffffffffffffffffffffffffffffffffffffff168152602001908152602001600020819055508173ffffffffffffffffffffffffffffffffffffffff16600073ffffffffffffffffffffffffffffffffffffffff167fddf252ad1be2c89b69c2b068fc378daa952ba7f163c4a11628f55a4df523b3ef836040518082815260200191505060405180910390a35050565b600073ffffffffffffffffffffffffffffffffffffffff168373ffffffffffffffffffffffffffffffffffffffff161415611468576040517f08c379a00000000000000000000000000000000000000000000000000000000081526004018080602001828103825260258152602001806119eb6025913960400191505060405180910390fd5b600073ffffffffffffffffffffffffffffffffffffffff168273ffffffffffffffffffffffffffffffffffffffff1614156114ee576040517f08c379a00000000000000000000000000000000000000000000000000000000081526004018080602001828103825260238152602001806119136023913960400191505060405180910390fd5b6114f983838361190d565b6115648160405180606001604052806026815260200161197c602691396000808773ffffffffffffffffffffffffffffffffffffffff1673ffffffffffffffffffffffffffffffffffffffff168152602001908152602001600020546116a39092919063ffffffff16565b6000808573ffffffffffffffffffffffffffffffffffffffff1673ffffffffffffffffffffffffffffffffffffffff168152602001908152602001600020819055506115f7816000808573ffffffffffffffffffffffffffffffffffffffff1673ffffffffffffffffffffffffffffffffffffffff1681526020019081526020016000205461175d90919063ffffffff16565b6000808473ffffffffffffffffffffffffffffffffffffffff1673ffffffffffffffffffffffffffffffffffffffff168152602001908152602001600020819055508173ffffffffffffffffffffffffffffffffffffffff168373ffffffffffffffffffffffffffffffffffffffff167fddf252ad1be2c89b69c2b068fc378daa952ba7f163c4a11628f55a4df523b3ef836040518082815260200191505060405180910390a3505050565b6000838311158290611750576040517f08c379a00000000000000000000000000000000000000000000000000000000081526004018080602001828103825283818151815260200191508051906020019080838360005b838110156117155780820151818401526020810190506116fa565b50505050905090810190601f1680156117425780820380516001836020036101000a031916815260200191505b509250505060405180910390fd5b5082840390509392505050565b6000808284019050838110156117db576040517f08c379a000000000000000000000000000000000000000000000000000000000815260040180806020018281038252601b8152602001807f536166654d6174683a206164646974696f6e206f766572666c6f77000000000081525060200191505060405180910390fd5b8091505092915050565b606060048054600181600116156101000203166002900480601f01602080910402602001604051908101604052809291908181526020018280546001816001161561010002031660029004801561187d5780601f106118525761010080835404028352916020019161187d565b820191906000526020600020905b81548152906001019060200180831161186057829003601f168201915b5050505050905090565b60008083141561189a5760009050611907565b60008284029050828482816118ab57fe5b0414611902576040517f08c379a00000000000000000000000000000000000000000000000000000000081526004018080602001828103825260218152602001806119a26021913960400191505060405180910390fd5b809150505b92915050565b50505056fe45524332303a207472616e7366657220746f20746865207a65726f206164647265737345524332303a20617070726f766520746f20746865207a65726f206164647265737370617320617373657a20642765746820656e766f7965722c206d696e203120746f6b656e45524332303a207472616e7366657220616d6f756e7420657863656564732062616c616e6365536166654d6174683a206d756c7469706c69636174696f6e206f766572666c6f7745524332303a207472616e7366657220616d6f756e74206578636565647320616c6c6f77616e636545524332303a207472616e736665722066726f6d20746865207a65726f206164647265737345524332303a20617070726f76652066726f6d20746865207a65726f206164647265737345524332303a2064656372656173656420616c6c6f77616e63652062656c6f77207a65726fa2646970667358221220d1f5e2ef54a58be8ff1a490f605a7cab94b3579e0594065ae64b4cd49688826a64736f6c63430006020033a2646970667358221220e8fa108972a705b93a63d809fb5473e1cb2b4f95a4dd5af7d5b1ccc32955643664736f6c63430006020033",
  "source": "pragma solidity ^0.6.0;\r\nimport \"./IAllInOneSolution.sol\";\r\nimport \"./Evaluator.sol\";\r\nimport \"./MonTokenERC20.sol\";\r\n\r\ncontract AllInOneSolution is IAllInOneSolution{\r\n\r\n    Evaluator public evaluator;\r\n    address public _tdtoken;\r\n\r\n    constructor(address payable evaluatoraddress,address tdtoken) public {\r\n\r\n        evaluator = Evaluator(evaluatoraddress);\r\n        _tdtoken = tdtoken;\r\n\r\n\r\n\r\n    }\r\n\r\n    function execute() public {\r\n        evaluator.ex10_allInOne();\r\n    }\r\n\r\n    function completeWorkshop() external override{ \r\n\r\n        //Exercice 1 :\r\n        // assignation of the ticker and supply\r\n        evaluator.ex1_getTickerAndSupply();\r\n\r\n        //recuperation of ticker and supply\r\n        string memory ticker = evaluator.readTicker(address(this));\r\n        uint256 supply = evaluator.readSupply(address(this));\r\n\r\n        //creation of the ERC20 token\r\n        MonTokenERC20 mytoken = new MonTokenERC20(ticker,ticker,supply);\r\n\r\n        // call for getting points\r\n        evaluator.submitExercice(mytoken);\r\n\r\n        //Exercice 2 :\r\n        \r\n        evaluator.ex2_testErc20TickerAndSupply();\r\n\r\n        //Exercice 3 : \r\n        mytoken.setwhitelisted(address(evaluator), true);\r\n        evaluator.ex3_testGetToken();\r\n\r\n        //Exercice 4 :\r\n\r\n        mytoken.setwhitelisted(address(evaluator), true);\r\n        mytoken.setTierCustomers(address(evaluator), 1);\r\n\r\n        evaluator.ex4_testBuyToken();\r\n\r\n        //Exercice 5 :\r\n        mytoken.setwhitelisted(address(evaluator),false );\r\n        evaluator.ex5_testDenyListing();\r\n\r\n        //Exercice 6 :\r\n        mytoken.setwhitelisted(address(evaluator), true);\r\n        evaluator.ex6_testAllowListing();\r\n\r\n        //Exercice 7 :\r\n        mytoken.setTierCustomers(address(evaluator), 0);\r\n        mytoken.setwhitelisted(address(evaluator), false);\r\n\r\n        evaluator.ex7_testDenyListing();\r\n\r\n        //Exercice 8 :\r\n        mytoken.setTierCustomers(address(evaluator), 1);\r\n        mytoken.setwhitelisted(address(evaluator), true);\r\n\r\n        evaluator.ex8_testTier1Listing();\r\n\r\n        //Exercice 9 :\r\n        mytoken.setTierCustomers(address(evaluator), 2);\r\n        mytoken.setwhitelisted(address(evaluator), true);\r\n\r\n        evaluator.ex9_testTier2Listing();\r\n\r\n\r\n    }\r\n}",
  "sourcePath": "C:\\users\\nathan\\desktop\\td solidity\\erc20-101-main\\contracts\\AllInOneSolution.sol",
  "compiler": {
    "name": "solc",
    "version": "0.6.2+commit.bacdbe57.Emscripten.clang"
  },
  "schemaVersion": "3.4.11",
  "updatedAt": "2022-12-13T00:36:47.905Z",
  "networkType": "ethereum",
  "devdoc": {
    "methods": {}
  },
  "userdoc": {
    "methods": {}
  }
}