{
  "contractName": "AllInOneSolution",
  "abi": [
    {
      "inputs": [
        {
          "internalType": "address",
          "name": "evaluator",
          "type": "address"
        },
        {
          "internalType": "address",
          "name": "tdtoken",
          "type": "address"
        }
      ],
      "stateMutability": "nonpayable",
      "type": "constructor"
    },
    {
      "inputs": [],
      "name": "completeWorkshop",
      "outputs": [],
      "stateMutability": "nonpayable",
      "type": "function"
    }
  ],
  "bytecode": "0x6080604052348015600f57600080fd5b506040516100c93803806100c983398181016040526040811015603157600080fd5b8101908080519060200190929190805190602001909291905050505050606d8061005c6000396000f3fe6080604052348015600f57600080fd5b506004361060285760003560e01c806359b4726c14602d575b600080fd5b60336035565b005b56fea2646970667358221220c362f97b95e6b66978f7bc0cc7d532e87b18a28872686f93d61039224793c93364736f6c63430006020033",
  "source": "pragma solidity ^0.6.0;\r\nimport \"./IAllInOneSolution.sol\";\r\n\r\ncontract AllInOneSolution is IAllInOneSolution{\r\n\r\n    \r\n\r\n    constructor(address evaluator,address tdtoken) public {\r\n\r\n\r\n    }\r\n\r\n    function completeWorkshop() external override{\r\n        \r\n\r\n    }\r\n}",
  "sourcePath": "C:\\users\\nathan\\desktop\\td solidity\\erc20-101-main\\contracts\\AllInOneSolution.sol",
  "compiler": {
    "name": "solc",
    "version": "0.6.2+commit.bacdbe57.Emscripten.clang"
  },
  "schemaVersion": "3.4.11",
  "updatedAt": "2022-12-11T22:57:05.338Z",
  "networkType": "ethereum",
  "devdoc": {
    "methods": {}
  },
  "userdoc": {
    "methods": {}
  }
}